{
  "contractName": "Campaign",
  "abi": [
    {
      "inputs": [
        {
          "internalType": "uint256",
          "name": "min",
          "type": "uint256"
        },
        {
          "internalType": "address",
          "name": "creator",
          "type": "address"
        }
      ],
      "stateMutability": "nonpayable",
      "type": "constructor"
    },
    {
      "inputs": [
        {
          "internalType": "address",
          "name": "",
          "type": "address"
        }
      ],
      "name": "approvers",
      "outputs": [
        {
          "internalType": "bool",
          "name": "",
          "type": "bool"
        }
      ],
      "stateMutability": "view",
      "type": "function"
    },
    {
      "inputs": [],
      "name": "approversCount",
      "outputs": [
        {
          "internalType": "uint256",
          "name": "",
          "type": "uint256"
        }
      ],
      "stateMutability": "view",
      "type": "function"
    },
    {
      "inputs": [],
      "name": "manager",
      "outputs": [
        {
          "internalType": "address",
          "name": "",
          "type": "address"
        }
      ],
      "stateMutability": "view",
      "type": "function"
    },
    {
      "inputs": [],
      "name": "minContribution",
      "outputs": [
        {
          "internalType": "uint256",
          "name": "",
          "type": "uint256"
        }
      ],
      "stateMutability": "view",
      "type": "function"
    },
    {
      "inputs": [
        {
          "internalType": "uint256",
          "name": "",
          "type": "uint256"
        }
      ],
      "name": "requests",
      "outputs": [
        {
          "internalType": "string",
          "name": "description",
          "type": "string"
        },
        {
          "internalType": "uint256",
          "name": "value",
          "type": "uint256"
        },
        {
          "internalType": "address payable",
          "name": "recipient",
          "type": "address"
        },
        {
          "internalType": "bool",
          "name": "complete",
          "type": "bool"
        },
        {
          "internalType": "uint256",
          "name": "approvalCount",
          "type": "uint256"
        }
      ],
      "stateMutability": "view",
      "type": "function"
    },
    {
      "inputs": [],
      "name": "contribute",
      "outputs": [],
      "stateMutability": "payable",
      "type": "function"
    },
    {
      "inputs": [
        {
          "internalType": "string",
          "name": "description",
          "type": "string"
        },
        {
          "internalType": "uint256",
          "name": "value",
          "type": "uint256"
        },
        {
          "internalType": "address payable",
          "name": "recipient",
          "type": "address"
        }
      ],
      "name": "createRequest",
      "outputs": [],
      "stateMutability": "nonpayable",
      "type": "function"
    },
    {
      "inputs": [
        {
          "internalType": "uint256",
          "name": "index",
          "type": "uint256"
        }
      ],
      "name": "approveRequest",
      "outputs": [],
      "stateMutability": "nonpayable",
      "type": "function"
    },
    {
      "inputs": [
        {
          "internalType": "uint256",
          "name": "index",
          "type": "uint256"
        }
      ],
      "name": "finalizeRequest",
      "outputs": [],
      "stateMutability": "nonpayable",
      "type": "function"
    }
  ],
  "bytecode": "0x608060405234801561001057600080fd5b50604051610ac2380380610ac283398101604081905261002f91610057565b600180546001600160a01b0319166001600160a01b0392909216919091179055600255610094565b6000806040838503121561006a57600080fd5b825160208401519092506001600160a01b038116811461008957600080fd5b809150509250929050565b610a1f806100a36000396000f3fe6080604052600436106100865760003560e01c806382fde0931161005957806382fde0931461015b5780638a9cfd551461017f578063aaffadf31461019f578063d7bb99ba146101b5578063d7d1bbdb146101bd57600080fd5b8063034410061461008b5780630a144391146100ad578063481c6a75146100f257806381d12c581461012a575b600080fd5b34801561009757600080fd5b506100ab6100a6366004610749565b6101dd565b005b3480156100b957600080fd5b506100dd6100c836600461077a565b60036020526000908152604090205460ff1681565b60405190151581526020015b60405180910390f35b3480156100fe57600080fd5b50600154610112906001600160a01b031681565b6040516001600160a01b0390911681526020016100e9565b34801561013657600080fd5b5061014a610145366004610749565b61039f565b6040516100e995949392919061079e565b34801561016757600080fd5b5061017160045481565b6040519081526020016100e9565b34801561018b57600080fd5b506100ab61019a366004610842565b61047e565b3480156101ab57600080fd5b5061017160025481565b6100ab610524565b3480156101c957600080fd5b506100ab6101d8366004610749565b610579565b6001546001600160a01b031633146102105760405162461bcd60e51b81526004016102079061090d565b60405180910390fd5b600080828154811061022457610224610950565b9060005260206000209060050201905060026004546102439190610966565b81600301541161028c5760405162461bcd60e51b81526020600482015260146024820152734e6f7420656e6f75676820617070726f76616c7360601b6044820152606401610207565b6002810154600160a01b900460ff16156102e85760405162461bcd60e51b815260206004820152601960248201527f5265717565737420616c72656164792066696e616c697a6564000000000000006044820152606401610207565b80600101544710156103475760405162461bcd60e51b815260206004820152602260248201527f4e6f7420656e6f7567682062616c616e636520696e2074686520636f6e74726160448201526118dd60f21b6064820152608401610207565b600281015460018201546040516001600160a01b039092169181156108fc0291906000818181858888f19350505050158015610387573d6000803e3d6000fd5b50600201805460ff60a01b1916600160a01b17905550565b600081815481106103af57600080fd5b90600052602060002090600502016000915090508060000180546103d290610988565b80601f01602080910402602001604051908101604052809291908181526020018280546103fe90610988565b801561044b5780601f106104205761010080835404028352916020019161044b565b820191906000526020600020905b81548152906001019060200180831161042e57829003601f168201915b5050505060018301546002840154600390940154929390926001600160a01b0382169250600160a01b90910460ff169085565b6001546001600160a01b031633146104a85760405162461bcd60e51b81526004016102079061090d565b60008054600181018255908052835160059091027f290decd9548b62a8d60345a988386fc84ba6bc95484008f6362f93160ef3e56301906104ef90829060208701906106b0565b5060018101929092556002820180546001600160a81b0319166001600160a01b03909216919091179055600060039091015550565b600254341161053257600080fd5b3360009081526003602052604090205460ff1661057757336000908152600360205260408120805460ff191660011790556004805491610571836109c2565b91905055505b565b600080828154811061058d5761058d610950565b6000918252602080832033845260039091526040909220546005909102909101915060ff1661060a5760405162461bcd60e51b815260206004820152602360248201527f4f6e6c7920617070726f766572732063616e20617070726f766520726571756560448201526273747360e81b6064820152608401610207565b33600090815260048201602052604090205460ff161561067b5760405162461bcd60e51b815260206004820152602660248201527f596f75206861766520616c726561647920617070726f76656420746869732072604482015265195c5d595cdd60d21b6064820152608401610207565b3360009081526004820160205260408120805460ff19166001179055600382018054916106a7836109c2565b91905055505050565b8280546106bc90610988565b90600052602060002090601f0160209004810192826106de5760008555610724565b82601f106106f757805160ff1916838001178555610724565b82800160010185558215610724579182015b82811115610724578251825591602001919060010190610709565b50610730929150610734565b5090565b5b808211156107305760008155600101610735565b60006020828403121561075b57600080fd5b5035919050565b6001600160a01b038116811461077757600080fd5b50565b60006020828403121561078c57600080fd5b813561079781610762565b9392505050565b60a08152600086518060a084015260005b818110156107cc576020818a0181015160c08684010152016107af565b818111156107de57600060c083860101525b5060208301879052601f01601f1916820160c001905061080960408301866001600160a01b03169052565b9215156060820152608001529392505050565b634e487b7160e01b600052604160045260246000fd5b803561083d81610762565b919050565b60008060006060848603121561085757600080fd5b833567ffffffffffffffff8082111561086f57600080fd5b818601915086601f83011261088357600080fd5b8135818111156108955761089561081c565b604051601f8201601f19908116603f011681019083821181831017156108bd576108bd61081c565b816040528281528960208487010111156108d657600080fd5b8260208601602083013760006020848301015280975050505050506020840135915061090460408501610832565b90509250925092565b60208082526023908201527f4f6e6c79206d616e616765722063616e2063616c6c20746869732066756e637460408201526234b7b760e91b606082015260800190565b634e487b7160e01b600052603260045260246000fd5b60008261098357634e487b7160e01b600052601260045260246000fd5b500490565b600181811c9082168061099c57607f821691505b6020821081036109bc57634e487b7160e01b600052602260045260246000fd5b50919050565b6000600182016109e257634e487b7160e01b600052601160045260246000fd5b506001019056fea264697066735822122003496a105070af0c69659cedd63e7f150a71313be5d4ead919002a240d5f35ba64736f6c634300080d0033",
  "immutableReferences": {},
  "source": "// SPDX-License-Identifier: GPL-3.0\r\n\r\npragma solidity >=0.7.0 <0.9.0;\r\n\r\ncontract CampaignFactory {\r\n    address[] public deployedCampaigns;\r\n\r\n    function createCampaign(uint min) public {\r\n        Campaign newCampaign = new Campaign(min, msg.sender);\r\n        deployedCampaigns.push(address(newCampaign));\r\n    } \r\n\r\n    function getDeployedCampaigns() public view returns (address[] memory) {\r\n        return deployedCampaigns;\r\n    }\r\n}\r\n\r\ncontract Campaign {\r\n\r\n    struct Request {\r\n        string description;\r\n        uint value;\r\n        address payable recipient;\r\n        bool complete;\r\n        uint approvalCount;\r\n        mapping(address => bool) approvals;\r\n    }\r\n\r\n    Request[] public requests;\r\n    address public manager;\r\n    uint public minContribution;\r\n    mapping(address => bool) public approvers;\r\n    uint public approversCount;\r\n    \r\n    modifier restricted() {\r\n        require(msg.sender == manager, \"Only manager can call this function\");\r\n        _;\r\n    }\r\n\r\n    constructor(uint min, address creator) {\r\n        manager = creator;    \r\n        minContribution = min;\r\n    }\r\n\r\n    function contribute() public payable {\r\n        require(msg.value > minContribution);\r\n\r\n        if (!approvers[msg.sender]) {\r\n            approvers[msg.sender] = true;\r\n            approversCount++;\r\n        }\r\n    } \r\n\r\n    function createRequest(string memory description, uint value, address payable recipient) public restricted {\r\n        Request storage newRequest = requests.push();\r\n        newRequest.description = description;\r\n        newRequest.value = value;\r\n        newRequest.recipient = recipient;\r\n        newRequest.complete = false;\r\n        newRequest.approvalCount = 0;\r\n        \r\n    }\r\n\r\n    function approveRequest(uint index) public  {\r\n        Request storage request = requests[index];\r\n\r\n        require(approvers[msg.sender], \"Only approvers can approve requests\");\r\n        require(!request.approvals[msg.sender], \"You have already approved this request\");\r\n        \r\n        request.approvals[msg.sender] = true;\r\n        request.approvalCount++;\r\n    }\r\n\r\n    function finalizeRequest(uint index) public restricted {\r\n        Request storage request = requests[index];\r\n\r\n        require(request.approvalCount > (approversCount/2), \"Not enough approvals\");\r\n        require(!request.complete, \"Request already finalized\");\r\n        require(address(this).balance >= request.value, \"Not enough balance in the contract\");\r\n\r\n        request.recipient.transfer(request.value);\r\n        request.complete = true;\r\n    }\r\n\r\n}",
  "sourcePath": "C:\\Users\\ankur\\Desktop\\MLH\\SeedChain\\contracts\\Campaign.sol",
  "compiler": {
    "name": "solc",
    "version": "0.8.13+commit.abaa5c0e.Emscripten.clang"
  },
  "schemaVersion": "3.4.16",
  "updatedAt": "2024-06-23T05:00:15.484Z",
  "devdoc": {
    "kind": "dev",
    "methods": {},
    "version": 1
  },
  "userdoc": {
    "kind": "user",
    "methods": {},
    "version": 1
  }
}