{
  "contractName": "Campaign",
  "abi": [
    {
      "inputs": [
        {
          "internalType": "uint256",
          "name": "min",
          "type": "uint256"
        },
        {
          "internalType": "address",
          "name": "creator",
          "type": "address"
        }
      ],
      "stateMutability": "nonpayable",
      "type": "constructor"
    },
    {
      "inputs": [
        {
          "internalType": "address",
          "name": "",
          "type": "address"
        }
      ],
      "name": "approvers",
      "outputs": [
        {
          "internalType": "bool",
          "name": "",
          "type": "bool"
        }
      ],
      "stateMutability": "view",
      "type": "function"
    },
    {
      "inputs": [],
      "name": "approversCount",
      "outputs": [
        {
          "internalType": "uint256",
          "name": "",
          "type": "uint256"
        }
      ],
      "stateMutability": "view",
      "type": "function"
    },
    {
      "inputs": [],
      "name": "manager",
      "outputs": [
        {
          "internalType": "address",
          "name": "",
          "type": "address"
        }
      ],
      "stateMutability": "view",
      "type": "function"
    },
    {
      "inputs": [],
      "name": "minContribution",
      "outputs": [
        {
          "internalType": "uint256",
          "name": "",
          "type": "uint256"
        }
      ],
      "stateMutability": "view",
      "type": "function"
    },
    {
      "inputs": [
        {
          "internalType": "uint256",
          "name": "",
          "type": "uint256"
        }
      ],
      "name": "requests",
      "outputs": [
        {
          "internalType": "string",
          "name": "description",
          "type": "string"
        },
        {
          "internalType": "uint256",
          "name": "value",
          "type": "uint256"
        },
        {
          "internalType": "address payable",
          "name": "recipient",
          "type": "address"
        },
        {
          "internalType": "bool",
          "name": "complete",
          "type": "bool"
        },
        {
          "internalType": "uint256",
          "name": "approvalCount",
          "type": "uint256"
        }
      ],
      "stateMutability": "view",
      "type": "function"
    },
    {
      "inputs": [],
      "name": "contribute",
      "outputs": [],
      "stateMutability": "payable",
      "type": "function"
    },
    {
      "inputs": [
        {
          "internalType": "string",
          "name": "description",
          "type": "string"
        },
        {
          "internalType": "uint256",
          "name": "value",
          "type": "uint256"
        },
        {
          "internalType": "address payable",
          "name": "recipient",
          "type": "address"
        }
      ],
      "name": "createRequest",
      "outputs": [],
      "stateMutability": "nonpayable",
      "type": "function"
    },
    {
      "inputs": [
        {
          "internalType": "uint256",
          "name": "index",
          "type": "uint256"
        }
      ],
      "name": "approveRequest",
      "outputs": [],
      "stateMutability": "nonpayable",
      "type": "function"
    },
    {
      "inputs": [
        {
          "internalType": "uint256",
          "name": "index",
          "type": "uint256"
        }
      ],
      "name": "finalizeRequest",
      "outputs": [],
      "stateMutability": "nonpayable",
      "type": "function"
    }
  ],
  "bytecode": "0x6080604052348015600e575f80fd5b50604051610ac0380380610ac0833981016040819052602b916052565b600180546001600160a01b0319166001600160a01b0392909216919091179055600255608a565b5f80604083850312156062575f80fd5b825160208401519092506001600160a01b0381168114607f575f80fd5b809150509250929050565b610a29806100975f395ff3fe608060405260043610610084575f3560e01c806382fde0931161005757806382fde093146101535780638a9cfd5514610176578063aaffadf314610195578063d7bb99ba146101aa578063d7d1bbdb146101b2575f80fd5b806303441006146100885780630a144391146100a9578063481c6a75146100ec57806381d12c5814610123575b5f80fd5b348015610093575f80fd5b506100a76100a2366004610683565b6101d1565b005b3480156100b4575f80fd5b506100d76100c33660046106b1565b60036020525f908152604090205460ff1681565b60405190151581526020015b60405180910390f35b3480156100f7575f80fd5b5060015461010b906001600160a01b031681565b6040516001600160a01b0390911681526020016100e3565b34801561012e575f80fd5b5061014261013d366004610683565b61038d565b6040516100e39594939291906106d3565b34801561015e575f80fd5b5061016860045481565b6040519081526020016100e3565b348015610181575f80fd5b506100a7610190366004610751565b610464565b3480156101a0575f80fd5b5061016860025481565b6100a76104fe565b3480156101bd575f80fd5b506100a76101cc366004610683565b610550565b6001546001600160a01b031633146102045760405162461bcd60e51b81526004016101fb9061081a565b60405180910390fd5b5f8082815481106102175761021761085d565b905f5260205f209060050201905060026004546102349190610871565b81600301541161027d5760405162461bcd60e51b81526020600482015260146024820152734e6f7420656e6f75676820617070726f76616c7360601b60448201526064016101fb565b6002810154600160a01b900460ff16156102d95760405162461bcd60e51b815260206004820152601960248201527f5265717565737420616c72656164792066696e616c697a65640000000000000060448201526064016101fb565b80600101544710156103385760405162461bcd60e51b815260206004820152602260248201527f4e6f7420656e6f7567682062616c616e636520696e2074686520636f6e74726160448201526118dd60f21b60648201526084016101fb565b600281015460018201546040516001600160a01b039092169181156108fc0291905f818181858888f19350505050158015610375573d5f803e3d5ffd5b50600201805460ff60a01b1916600160a01b17905550565b5f818154811061039b575f80fd5b905f5260205f2090600502015f91509050805f0180546103ba90610890565b80601f01602080910402602001604051908101604052809291908181526020018280546103e690610890565b80156104315780601f1061040857610100808354040283529160200191610431565b820191905f5260205f20905b81548152906001019060200180831161041457829003601f168201915b5050505060018301546002840154600390940154929390926001600160a01b0382169250600160a01b90910460ff169085565b6001546001600160a01b0316331461048e5760405162461bcd60e51b81526004016101fb9061081a565b5f80546001810182559080526005027f290decd9548b62a8d60345a988386fc84ba6bc95484008f6362f93160ef3e56301806104ca8582610914565b5060018101929092556002820180546001600160a81b0319166001600160a01b039092169190911790555f60039091015550565b600254341161050b575f80fd5b335f9081526003602052604090205460ff1661054e57335f908152600360205260408120805460ff191660011790556004805491610548836109cf565b91905055505b565b5f8082815481106105635761056361085d565b5f918252602080832033845260039091526040909220546005909102909101915060ff166105df5760405162461bcd60e51b815260206004820152602360248201527f4f6e6c7920617070726f766572732063616e20617070726f766520726571756560448201526273747360e81b60648201526084016101fb565b335f90815260048201602052604090205460ff161561064f5760405162461bcd60e51b815260206004820152602660248201527f596f75206861766520616c726561647920617070726f76656420746869732072604482015265195c5d595cdd60d21b60648201526084016101fb565b335f9081526004820160205260408120805460ff191660011790556003820180549161067a836109cf565b91905055505050565b5f60208284031215610693575f80fd5b5035919050565b6001600160a01b03811681146106ae575f80fd5b50565b5f602082840312156106c1575f80fd5b81356106cc8161069a565b9392505050565b60a081525f86518060a0840152806020890160c085015e5f60c082850181019190915260208401979097526001600160a01b039590951660408301525091151560608301526080820152601f909101601f19160101919050565b634e487b7160e01b5f52604160045260245ffd5b803561074c8161069a565b919050565b5f805f60608486031215610763575f80fd5b833567ffffffffffffffff811115610779575f80fd5b8401601f81018613610789575f80fd5b803567ffffffffffffffff8111156107a3576107a361072d565b604051601f8201601f19908116603f0116810167ffffffffffffffff811182821017156107d2576107d261072d565b6040528181528282016020018810156107e9575f80fd5b816020840160208301375f602092820183015294508501359250610811905060408501610741565b90509250925092565b60208082526023908201527f4f6e6c79206d616e616765722063616e2063616c6c20746869732066756e637460408201526234b7b760e91b606082015260800190565b634e487b7160e01b5f52603260045260245ffd5b5f8261088b57634e487b7160e01b5f52601260045260245ffd5b500490565b600181811c908216806108a457607f821691505b6020821081036108c257634e487b7160e01b5f52602260045260245ffd5b50919050565b601f82111561090f57805f5260205f20601f840160051c810160208510156108ed5750805b601f840160051c820191505b8181101561090c575f81556001016108f9565b50505b505050565b815167ffffffffffffffff81111561092e5761092e61072d565b6109428161093c8454610890565b846108c8565b6020601f821160018114610974575f831561095d5750848201515b5f19600385901b1c1916600184901b17845561090c565b5f84815260208120601f198516915b828110156109a35787850151825560209485019460019092019101610983565b50848210156109c057868401515f19600387901b60f8161c191681555b50505050600190811b01905550565b5f600182016109ec57634e487b7160e01b5f52601160045260245ffd5b506001019056fea26469706673582212203a93ff118d01c909c47e1277b0601b43dfa103ad948087c02d1349962250129264736f6c634300081a0033",
  "immutableReferences": {},
  "source": "// SPDX-License-Identifier: GPL-3.0\r\n\r\npragma solidity >=0.7.0 <0.9.0;\r\n\r\ncontract CampaignFactory {\r\n    address[] public deployedCampaigns;\r\n\r\n    function createCampaign(uint min) public {\r\n        Campaign newCampaign = new Campaign(min, msg.sender);\r\n        deployedCampaigns.push(address(newCampaign));\r\n    } \r\n\r\n    function getDeployedCampaigns() public view returns (address[] memory) {\r\n        return deployedCampaigns;\r\n    }\r\n}\r\n\r\ncontract Campaign {\r\n\r\n    struct Request {\r\n        string description;\r\n        uint value;\r\n        address payable recipient;\r\n        bool complete;\r\n        uint approvalCount;\r\n        mapping(address => bool) approvals;\r\n    }\r\n\r\n    Request[] public requests;\r\n    address public manager;\r\n    uint public minContribution;\r\n    mapping(address => bool) public approvers;\r\n    uint public approversCount;\r\n    \r\n    modifier restricted() {\r\n        require(msg.sender == manager, \"Only manager can call this function\");\r\n        _;\r\n    }\r\n\r\n    constructor(uint min, address creator) {\r\n        manager = creator;    \r\n        minContribution = min;\r\n    }\r\n\r\n    function contribute() public payable {\r\n        require(msg.value > minContribution);\r\n\r\n        if (!approvers[msg.sender]) {\r\n            approvers[msg.sender] = true;\r\n            approversCount++;\r\n        }\r\n    } \r\n\r\n    function createRequest(string memory description, uint value, address payable recipient) public restricted {\r\n        Request storage newRequest = requests.push();\r\n        newRequest.description = description;\r\n        newRequest.value = value;\r\n        newRequest.recipient = recipient;\r\n        newRequest.complete = false;\r\n        newRequest.approvalCount = 0;\r\n        \r\n    }\r\n\r\n    function approveRequest(uint index) public  {\r\n        Request storage request = requests[index];\r\n\r\n        require(approvers[msg.sender], \"Only approvers can approve requests\");\r\n        require(!request.approvals[msg.sender], \"You have already approved this request\");\r\n        \r\n        request.approvals[msg.sender] = true;\r\n        request.approvalCount++;\r\n    }\r\n\r\n    function finalizeRequest(uint index) public restricted {\r\n        Request storage request = requests[index];\r\n\r\n        require(request.approvalCount > (approversCount/2), \"Not enough approvals\");\r\n        require(!request.complete, \"Request already finalized\");\r\n        require(address(this).balance >= request.value, \"Not enough balance in the contract\");\r\n\r\n        request.recipient.transfer(request.value);\r\n        request.complete = true;\r\n    }\r\n\r\n}",
  "sourcePath": "C:\\Users\\ankur\\Desktop\\MLH\\SeedChain\\contracts\\Campaign.sol",
  "compiler": {
    "name": "solc",
    "version": "0.8.26+commit.8a97fa7a.Emscripten.clang"
  },
  "schemaVersion": "3.4.16",
  "updatedAt": "2024-06-22T10:48:21.244Z",
  "devdoc": {
    "kind": "dev",
    "methods": {},
    "version": 1
  },
  "userdoc": {
    "kind": "user",
    "methods": {},
    "version": 1
  }
}