{
  "contractName": "Campaign",
  "abi": [
    {
      "inputs": [
        {
          "internalType": "uint256",
          "name": "min",
          "type": "uint256"
        },
        {
          "internalType": "address",
          "name": "creator",
          "type": "address"
        }
      ],
      "stateMutability": "nonpayable",
      "type": "constructor"
    },
    {
      "inputs": [
        {
          "internalType": "address",
          "name": "",
          "type": "address"
        }
      ],
      "name": "approvers",
      "outputs": [
        {
          "internalType": "bool",
          "name": "",
          "type": "bool"
        }
      ],
      "stateMutability": "view",
      "type": "function"
    },
    {
      "inputs": [],
      "name": "approversCount",
      "outputs": [
        {
          "internalType": "uint256",
          "name": "",
          "type": "uint256"
        }
      ],
      "stateMutability": "view",
      "type": "function"
    },
    {
      "inputs": [],
      "name": "manager",
      "outputs": [
        {
          "internalType": "address",
          "name": "",
          "type": "address"
        }
      ],
      "stateMutability": "view",
      "type": "function"
    },
    {
      "inputs": [],
      "name": "minContribution",
      "outputs": [
        {
          "internalType": "uint256",
          "name": "",
          "type": "uint256"
        }
      ],
      "stateMutability": "view",
      "type": "function"
    },
    {
      "inputs": [
        {
          "internalType": "uint256",
          "name": "",
          "type": "uint256"
        }
      ],
      "name": "requests",
      "outputs": [
        {
          "internalType": "string",
          "name": "description",
          "type": "string"
        },
        {
          "internalType": "uint256",
          "name": "value",
          "type": "uint256"
        },
        {
          "internalType": "address payable",
          "name": "recipient",
          "type": "address"
        },
        {
          "internalType": "bool",
          "name": "complete",
          "type": "bool"
        },
        {
          "internalType": "uint256",
          "name": "approvalCount",
          "type": "uint256"
        }
      ],
      "stateMutability": "view",
      "type": "function"
    },
    {
      "inputs": [],
      "name": "contribute",
      "outputs": [],
      "stateMutability": "payable",
      "type": "function"
    },
    {
      "inputs": [
        {
          "internalType": "string",
          "name": "description",
          "type": "string"
        },
        {
          "internalType": "uint256",
          "name": "value",
          "type": "uint256"
        },
        {
          "internalType": "address payable",
          "name": "recipient",
          "type": "address"
        }
      ],
      "name": "createRequest",
      "outputs": [],
      "stateMutability": "nonpayable",
      "type": "function"
    },
    {
      "inputs": [
        {
          "internalType": "uint256",
          "name": "index",
          "type": "uint256"
        }
      ],
      "name": "approveRequest",
      "outputs": [],
      "stateMutability": "nonpayable",
      "type": "function"
    },
    {
      "inputs": [
        {
          "internalType": "uint256",
          "name": "index",
          "type": "uint256"
        }
      ],
      "name": "finalizeRequest",
      "outputs": [],
      "stateMutability": "nonpayable",
      "type": "function"
    },
    {
      "inputs": [],
      "name": "getSummary",
      "outputs": [
        {
          "internalType": "uint256",
          "name": "",
          "type": "uint256"
        },
        {
          "internalType": "uint256",
          "name": "",
          "type": "uint256"
        },
        {
          "internalType": "uint256",
          "name": "",
          "type": "uint256"
        },
        {
          "internalType": "uint256",
          "name": "",
          "type": "uint256"
        },
        {
          "internalType": "address",
          "name": "",
          "type": "address"
        }
      ],
      "stateMutability": "view",
      "type": "function"
    },
    {
      "inputs": [],
      "name": "getRequestsCount",
      "outputs": [
        {
          "internalType": "uint256",
          "name": "",
          "type": "uint256"
        }
      ],
      "stateMutability": "view",
      "type": "function"
    }
  ],
  "bytecode": "0x608060405234801561001057600080fd5b50604051610b30380380610b3083398101604081905261002f91610057565b600180546001600160a01b0319166001600160a01b0392909216919091179055600255610094565b6000806040838503121561006a57600080fd5b825160208401519092506001600160a01b038116811461008957600080fd5b809150509250929050565b610a8d806100a36000396000f3fe60806040526004361061009c5760003560e01c806381d12c581161006457806381d12c58146101a657806382fde093146101d75780638a9cfd55146101ed578063aaffadf31461020d578063d7bb99ba14610223578063d7d1bbdb1461022b57600080fd5b806303441006146100a15780630a144391146100c35780633410452a146101085780634051ddac14610127578063481c6a751461016e575b600080fd5b3480156100ad57600080fd5b506100c16100bc3660046107b7565b61024b565b005b3480156100cf57600080fd5b506100f36100de3660046107e8565b60036020526000908152604090205460ff1681565b60405190151581526020015b60405180910390f35b34801561011457600080fd5b506000545b6040519081526020016100ff565b34801561013357600080fd5b506002546000546004546001546040805194855247602086015284019290925260608301526001600160a01b0316608082015260a0016100ff565b34801561017a57600080fd5b5060015461018e906001600160a01b031681565b6040516001600160a01b0390911681526020016100ff565b3480156101b257600080fd5b506101c66101c13660046107b7565b61040d565b6040516100ff95949392919061080c565b3480156101e357600080fd5b5061011960045481565b3480156101f957600080fd5b506100c16102083660046108b0565b6104ec565b34801561021957600080fd5b5061011960025481565b6100c1610592565b34801561023757600080fd5b506100c16102463660046107b7565b6105e7565b6001546001600160a01b0316331461027e5760405162461bcd60e51b81526004016102759061097b565b60405180910390fd5b6000808281548110610292576102926109be565b9060005260206000209060050201905060026004546102b191906109d4565b8160030154116102fa5760405162461bcd60e51b81526020600482015260146024820152734e6f7420656e6f75676820617070726f76616c7360601b6044820152606401610275565b6002810154600160a01b900460ff16156103565760405162461bcd60e51b815260206004820152601960248201527f5265717565737420616c72656164792066696e616c697a6564000000000000006044820152606401610275565b80600101544710156103b55760405162461bcd60e51b815260206004820152602260248201527f4e6f7420656e6f7567682062616c616e636520696e2074686520636f6e74726160448201526118dd60f21b6064820152608401610275565b600281015460018201546040516001600160a01b039092169181156108fc0291906000818181858888f193505050501580156103f5573d6000803e3d6000fd5b50600201805460ff60a01b1916600160a01b17905550565b6000818154811061041d57600080fd5b9060005260206000209060050201600091509050806000018054610440906109f6565b80601f016020809104026020016040519081016040528092919081815260200182805461046c906109f6565b80156104b95780601f1061048e576101008083540402835291602001916104b9565b820191906000526020600020905b81548152906001019060200180831161049c57829003601f168201915b5050505060018301546002840154600390940154929390926001600160a01b0382169250600160a01b90910460ff169085565b6001546001600160a01b031633146105165760405162461bcd60e51b81526004016102759061097b565b60008054600181018255908052835160059091027f290decd9548b62a8d60345a988386fc84ba6bc95484008f6362f93160ef3e563019061055d908290602087019061071e565b5060018101929092556002820180546001600160a81b0319166001600160a01b03909216919091179055600060039091015550565b60025434116105a057600080fd5b3360009081526003602052604090205460ff166105e557336000908152600360205260408120805460ff1916600117905560048054916105df83610a30565b91905055505b565b60008082815481106105fb576105fb6109be565b6000918252602080832033845260039091526040909220546005909102909101915060ff166106785760405162461bcd60e51b815260206004820152602360248201527f4f6e6c7920617070726f766572732063616e20617070726f766520726571756560448201526273747360e81b6064820152608401610275565b33600090815260048201602052604090205460ff16156106e95760405162461bcd60e51b815260206004820152602660248201527f596f75206861766520616c726561647920617070726f76656420746869732072604482015265195c5d595cdd60d21b6064820152608401610275565b3360009081526004820160205260408120805460ff191660011790556003820180549161071583610a30565b91905055505050565b82805461072a906109f6565b90600052602060002090601f01602090048101928261074c5760008555610792565b82601f1061076557805160ff1916838001178555610792565b82800160010185558215610792579182015b82811115610792578251825591602001919060010190610777565b5061079e9291506107a2565b5090565b5b8082111561079e57600081556001016107a3565b6000602082840312156107c957600080fd5b5035919050565b6001600160a01b03811681146107e557600080fd5b50565b6000602082840312156107fa57600080fd5b8135610805816107d0565b9392505050565b60a08152600086518060a084015260005b8181101561083a576020818a0181015160c086840101520161081d565b8181111561084c57600060c083860101525b5060208301879052601f01601f1916820160c001905061087760408301866001600160a01b03169052565b9215156060820152608001529392505050565b634e487b7160e01b600052604160045260246000fd5b80356108ab816107d0565b919050565b6000806000606084860312156108c557600080fd5b833567ffffffffffffffff808211156108dd57600080fd5b818601915086601f8301126108f157600080fd5b8135818111156109035761090361088a565b604051601f8201601f19908116603f0116810190838211818310171561092b5761092b61088a565b8160405282815289602084870101111561094457600080fd5b82602086016020830137600060208483010152809750505050505060208401359150610972604085016108a0565b90509250925092565b60208082526023908201527f4f6e6c79206d616e616765722063616e2063616c6c20746869732066756e637460408201526234b7b760e91b606082015260800190565b634e487b7160e01b600052603260045260246000fd5b6000826109f157634e487b7160e01b600052601260045260246000fd5b500490565b600181811c90821680610a0a57607f821691505b602082108103610a2a57634e487b7160e01b600052602260045260246000fd5b50919050565b600060018201610a5057634e487b7160e01b600052601160045260246000fd5b506001019056fea2646970667358221220922f62cade6538649b54bc40a005d84485bc6c294fc2c9605c2fac217ae982df64736f6c634300080d0033",
  "immutableReferences": {},
  "source": "// SPDX-License-Identifier: GPL-3.0\r\n\r\npragma solidity >=0.7.0 <0.9.0;\r\n\r\ncontract CampaignFactory {\r\n    address[] public deployedCampaigns;\r\n\r\n    function createCampaign(uint min) public {\r\n        Campaign newCampaign = new Campaign(min, msg.sender);\r\n        deployedCampaigns.push(address(newCampaign));\r\n    } \r\n\r\n    function getDeployedCampaigns() public view returns (address[] memory) {\r\n        return deployedCampaigns;\r\n    }\r\n}\r\n\r\ncontract Campaign {\r\n\r\n    struct Request {\r\n        string description;\r\n        uint value;\r\n        address payable recipient;\r\n        bool complete;\r\n        uint approvalCount;\r\n        mapping(address => bool) approvals;\r\n    }\r\n\r\n    Request[] public requests;\r\n    address public manager;\r\n    uint public minContribution;\r\n    mapping(address => bool) public approvers;\r\n    uint public approversCount;\r\n    \r\n    modifier restricted() {\r\n        require(msg.sender == manager, \"Only manager can call this function\");\r\n        _;\r\n    }\r\n\r\n    constructor(uint min, address creator) {\r\n        manager = creator;    \r\n        minContribution = min;\r\n    }\r\n\r\n    function contribute() public payable {\r\n        require(msg.value > minContribution);\r\n\r\n        if (!approvers[msg.sender]) {\r\n            approvers[msg.sender] = true;\r\n            approversCount++;\r\n        }\r\n    } \r\n\r\n    function createRequest(string memory description, uint value, address payable recipient) public restricted {\r\n        Request storage newRequest = requests.push();\r\n        newRequest.description = description;\r\n        newRequest.value = value;\r\n        newRequest.recipient = recipient;\r\n        newRequest.complete = false;\r\n        newRequest.approvalCount = 0;\r\n        \r\n    }\r\n\r\n    function approveRequest(uint index) public  {\r\n        Request storage request = requests[index];\r\n\r\n        require(approvers[msg.sender], \"Only approvers can approve requests\");\r\n        require(!request.approvals[msg.sender], \"You have already approved this request\");\r\n        \r\n        request.approvals[msg.sender] = true;\r\n        request.approvalCount++;\r\n    }\r\n\r\n    function finalizeRequest(uint index) public restricted {\r\n        Request storage request = requests[index];\r\n\r\n        require(request.approvalCount > (approversCount/2), \"Not enough approvals\");\r\n        require(!request.complete, \"Request already finalized\");\r\n        require(address(this).balance >= request.value, \"Not enough balance in the contract\");\r\n\r\n        request.recipient.transfer(request.value);\r\n        request.complete = true;\r\n    }\r\n\r\n    function getSummary() public view returns (\r\n        uint, uint, uint, uint, address\r\n    ) {\r\n        return (\r\n            minContribution,\r\n            address(this).balance,\r\n            requests.length,\r\n            approversCount,\r\n            manager\r\n        );\r\n    }\r\n\r\n    function getRequestsCount() public view returns (uint) {\r\n        return requests.length;\r\n    }\r\n\r\n}",
  "sourcePath": "C:\\Users\\ankur\\Desktop\\SeedChain\\contracts\\Campaign.sol",
  "compiler": {
    "name": "solc",
    "version": "0.8.13+commit.abaa5c0e.Emscripten.clang"
  },
  "schemaVersion": "3.4.16",
  "updatedAt": "2024-07-01T09:02:28.056Z",
  "devdoc": {
    "kind": "dev",
    "methods": {},
    "version": 1
  },
  "userdoc": {
    "kind": "user",
    "methods": {},
    "version": 1
  }
}